{
  "contractName": "Rentals",
  "abi": [
    {
      "inputs": [],
      "stateMutability": "nonpayable",
      "type": "constructor"
    },
    {
      "anonymous": false,
      "inputs": [
        {
          "indexed": true,
          "internalType": "uint256",
          "name": "property",
          "type": "uint256"
        },
        {
          "indexed": true,
          "internalType": "uint256",
          "name": "rentAmount",
          "type": "uint256"
        }
      ],
      "name": "LogPropertyAdded",
      "type": "event"
    },
    {
      "anonymous": false,
      "inputs": [
        {
          "indexed": true,
          "internalType": "uint256",
          "name": "property",
          "type": "uint256"
        },
        {
          "indexed": true,
          "internalType": "address",
          "name": "tenant",
          "type": "address"
        }
      ],
      "name": "LogTenantAdded",
      "type": "event"
    },
    {
      "anonymous": false,
      "inputs": [
        {
          "indexed": true,
          "internalType": "uint256",
          "name": "i",
          "type": "uint256"
        },
        {
          "indexed": true,
          "internalType": "uint256",
          "name": "idListLength",
          "type": "uint256"
        }
      ],
      "name": "LogUints",
      "type": "event"
    },
    {
      "anonymous": false,
      "inputs": [
        {
          "indexed": true,
          "internalType": "address",
          "name": "previousOwner",
          "type": "address"
        },
        {
          "indexed": true,
          "internalType": "address",
          "name": "newOwner",
          "type": "address"
        }
      ],
      "name": "OwnershipTransferred",
      "type": "event"
    },
    {
      "inputs": [
        {
          "internalType": "uint256",
          "name": "",
          "type": "uint256"
        }
      ],
      "name": "idList",
      "outputs": [
        {
          "internalType": "uint256",
          "name": "",
          "type": "uint256"
        }
      ],
      "stateMutability": "view",
      "type": "function",
      "constant": true
    },
    {
      "inputs": [],
      "name": "idListLength",
      "outputs": [
        {
          "internalType": "uint256",
          "name": "",
          "type": "uint256"
        }
      ],
      "stateMutability": "view",
      "type": "function",
      "constant": true
    },
    {
      "inputs": [],
      "name": "owner",
      "outputs": [
        {
          "internalType": "address",
          "name": "",
          "type": "address"
        }
      ],
      "stateMutability": "view",
      "type": "function",
      "constant": true
    },
    {
      "inputs": [
        {
          "internalType": "uint256",
          "name": "",
          "type": "uint256"
        }
      ],
      "name": "properties",
      "outputs": [
        {
          "internalType": "uint256",
          "name": "propertyId",
          "type": "uint256"
        },
        {
          "internalType": "uint256",
          "name": "currentRentAmount",
          "type": "uint256"
        },
        {
          "internalType": "enum Rentals.State",
          "name": "status",
          "type": "uint8"
        },
        {
          "internalType": "address payable",
          "name": "tenant",
          "type": "address"
        },
        {
          "internalType": "string",
          "name": "location",
          "type": "string"
        },
        {
          "internalType": "string",
          "name": "description",
          "type": "string"
        },
        {
          "internalType": "string",
          "name": "infoUrl",
          "type": "string"
        },
        {
          "internalType": "string",
          "name": "imgUrl",
          "type": "string"
        },
        {
          "components": [
            {
              "internalType": "uint256",
              "name": "timestamp",
              "type": "uint256"
            },
            {
              "internalType": "uint256",
              "name": "amount",
              "type": "uint256"
            },
            {
              "internalType": "address",
              "name": "from",
              "type": "address"
            },
            {
              "internalType": "enum Rentals.PaymentState",
              "name": "paymentStatus",
              "type": "uint8"
            }
          ],
          "internalType": "struct Rentals.Payment",
          "name": "latestTenantPayment",
          "type": "tuple"
        },
        {
          "internalType": "uint256",
          "name": "paymentPeriodSec",
          "type": "uint256"
        }
      ],
      "stateMutability": "view",
      "type": "function",
      "constant": true
    },
    {
      "inputs": [],
      "name": "renounceOwnership",
      "outputs": [],
      "stateMutability": "nonpayable",
      "type": "function"
    },
    {
      "inputs": [
        {
          "internalType": "address",
          "name": "newOwner",
          "type": "address"
        }
      ],
      "name": "transferOwnership",
      "outputs": [],
      "stateMutability": "nonpayable",
      "type": "function"
    },
    {
      "inputs": [
        {
          "internalType": "uint256",
          "name": "_propertyId",
          "type": "uint256"
        }
      ],
      "name": "addAsTenant",
      "outputs": [],
      "stateMutability": "payable",
      "type": "function",
      "payable": true
    },
    {
      "inputs": [
        {
          "internalType": "uint256",
          "name": "rentAmount",
          "type": "uint256"
        },
        {
          "internalType": "string",
          "name": "_location",
          "type": "string"
        },
        {
          "internalType": "string",
          "name": "_description",
          "type": "string"
        },
        {
          "internalType": "string",
          "name": "_infoUrl",
          "type": "string"
        },
        {
          "internalType": "string",
          "name": "_imgUrl",
          "type": "string"
        }
      ],
      "name": "addProperty",
      "outputs": [],
      "stateMutability": "nonpayable",
      "type": "function"
    },
    {
      "inputs": [],
      "name": "checkPayments",
      "outputs": [],
      "stateMutability": "nonpayable",
      "type": "function"
    },
    {
      "inputs": [],
      "name": "withdraw",
      "outputs": [],
      "stateMutability": "nonpayable",
      "type": "function"
    }
  ],
  "bytecode": "0x608060405234801561001057600080fd5b5061002d61002261003260201b60201c565b61003a60201b60201c565b6100fe565b600033905090565b60008060009054906101000a900473ffffffffffffffffffffffffffffffffffffffff169050816000806101000a81548173ffffffffffffffffffffffffffffffffffffffff021916908373ffffffffffffffffffffffffffffffffffffffff1602179055508173ffffffffffffffffffffffffffffffffffffffff168173ffffffffffffffffffffffffffffffffffffffff167f8be0079c531659141344cd1fd0a4f28419497f9722a3daafe3b4186f6b6457e060405160405180910390a35050565b61219d806200010e6000396000f3fe6080604052600436106100915760003560e01c80638da5cb5b116100595780638da5cb5b14610143578063d3578f981461016e578063e59b242c1461018a578063f2fde38b146101b3578063f7b10808146101dc57610091565b80633ccfd60b146100965780636313531f146100ad5780636386cd17146100ea578063715018a6146101155780637f9cbfc11461012c575b600080fd5b3480156100a257600080fd5b506100ab610222565b005b3480156100b957600080fd5b506100d460048036038101906100cf91906117e3565b61022c565b6040516100e19190611c50565b60405180910390f35b3480156100f657600080fd5b506100ff610250565b60405161010c9190611c50565b60405180910390f35b34801561012157600080fd5b5061012a610256565b005b34801561013857600080fd5b5061014161026a565b005b34801561014f57600080fd5b50610158610719565b6040516101659190611b95565b60405180910390f35b610188600480360381019061018391906117e3565b610742565b005b34801561019657600080fd5b506101b160048036038101906101ac919061180c565b610bb9565b005b3480156101bf57600080fd5b506101da60048036038101906101d591906117ba565b610f5f565b005b3480156101e857600080fd5b5061020360048036038101906101fe91906117e3565b610fe3565b6040516102199a99989796959493929190611c6b565b60405180910390f35b61022a61137f565b565b6002818154811061023c57600080fd5b906000526020600020016000915090505481565b60035481565b61025e61137f565b61026860006113fd565b565b60005b60028054905081101561071657600060046000600284815481106102ba577f4e487b7100000000000000000000000000000000000000000000000000000000600052603260045260246000fd5b9060005260206000200154815260200190815260200160002060070160000154426102e59190611e8c565b905060006004600060028581548110610327577f4e487b7100000000000000000000000000000000000000000000000000000000600052603260045260246000fd5b90600052602060002001548152602001908152602001600020600a01549050600280549050837fcce16797734f773eb76b149844ff0bb962af26a903a981853154daefd92d693a60405160405180910390a3600073ffffffffffffffffffffffffffffffffffffffff1660046000600286815481106103cf577f4e487b7100000000000000000000000000000000000000000000000000000000600052603260045260246000fd5b9060005260206000200154815260200190815260200160002060070160020160009054906101000a900473ffffffffffffffffffffffffffffffffffffffff1673ffffffffffffffffffffffffffffffffffffffff161461070057808211156104865761047f6002848154811061046f577f4e487b7100000000000000000000000000000000000000000000000000000000600052603260045260246000fd5b90600052602060002001546114c1565b5050610703565b6064605a826104959190611e32565b61049f9190611e01565b82111561055957600360046000600286815481106104e6577f4e487b7100000000000000000000000000000000000000000000000000000000600052603260045260246000fd5b9060005260206000200154815260200190815260200160002060070160020160146101000a81548160ff0219169083600481111561054d577f4e487b7100000000000000000000000000000000000000000000000000000000600052602160045260246000fd5b02179055505050610703565b60646046826105689190611e32565b6105729190611e01565b82111561062c57600260046000600286815481106105b9577f4e487b7100000000000000000000000000000000000000000000000000000000600052603260045260246000fd5b9060005260206000200154815260200190815260200160002060070160020160146101000a81548160ff02191690836004811115610620577f4e487b7100000000000000000000000000000000000000000000000000000000600052602160045260246000fd5b02179055505050610703565b606460288261063b9190611e32565b6106459190611e01565b8211156106ff576001600460006002868154811061068c577f4e487b7100000000000000000000000000000000000000000000000000000000600052603260045260246000fd5b9060005260206000200154815260200190815260200160002060070160020160146101000a81548160ff021916908360048111156106f3577f4e487b7100000000000000000000000000000000000000000000000000000000600052602160045260246000fd5b02179055505050610703565b5b50505b808061070e90611fcc565b91505061026d565b50565b60008060009054906101000a900473ffffffffffffffffffffffffffffffffffffffff16905090565b806000600281111561077d577f4e487b7100000000000000000000000000000000000000000000000000000000600052602160045260246000fd5b6004600083815260200190815260200160002060020160009054906101000a900460ff1660028111156107d9577f4e487b7100000000000000000000000000000000000000000000000000000000600052602160045260246000fd5b1480156108485750600073ffffffffffffffffffffffffffffffffffffffff166004600083815260200190815260200160002060020160019054906101000a900473ffffffffffffffffffffffffffffffffffffffff1673ffffffffffffffffffffffffffffffffffffffff16145b610887576040517f08c379a000000000000000000000000000000000000000000000000000000000815260040161087e90611c30565b60405180910390fd5b81346004600083815260200190815260200160002060010154146108e0576040517f08c379a00000000000000000000000000000000000000000000000000000000081526004016108d790611bb0565b60405180910390fd5b6000600460008581526020019081526020016000209050338160020160016101000a81548173ffffffffffffffffffffffffffffffffffffffff021916908373ffffffffffffffffffffffffffffffffffffffff16021790555060405180608001604052804281526020013481526020013373ffffffffffffffffffffffffffffffffffffffff168152602001600060048111156109a7577f4e487b7100000000000000000000000000000000000000000000000000000000600052602160045260246000fd5b81525081600701600082015181600001556020820151816001015560408201518160020160006101000a81548173ffffffffffffffffffffffffffffffffffffffff021916908373ffffffffffffffffffffffffffffffffffffffff16021790555060608201518160020160146101000a81548160ff02191690836004811115610a5a577f4e487b7100000000000000000000000000000000000000000000000000000000600052602160045260246000fd5b021790555090505060018160020160006101000a81548160ff02191690836002811115610ab0577f4e487b7100000000000000000000000000000000000000000000000000000000600052602160045260246000fd5b02179055506000610abf610719565b905060008173ffffffffffffffffffffffffffffffffffffffff1634604051610ae790611b80565b60006040518083038185875af1925050503d8060008114610b24576040519150601f19603f3d011682016040523d82523d6000602084013e610b29565b606091505b5050905080610b6d576040517f08c379a0000000000000000000000000000000000000000000000000000000008152600401610b6490611bd0565b60405180910390fd5b3373ffffffffffffffffffffffffffffffffffffffff16867f6d08645a1138b608810c5ba9caaafcca0a45fe788c9e1944036488f27a5d7cdf60405160405180910390a3505050505050565b610bc161137f565b600060018054610bd19190611dab565b9050600060405180610140016040528083815260200188815260200160006002811115610c27577f4e487b7100000000000000000000000000000000000000000000000000000000600052602160045260246000fd5b8152602001600073ffffffffffffffffffffffffffffffffffffffff168152602001878152602001868152602001858152602001848152602001604051806080016040528042815260200160008152602001600073ffffffffffffffffffffffffffffffffffffffff16815260200160006004811115610cd0577f4e487b7100000000000000000000000000000000000000000000000000000000600052602160045260246000fd5b81525081526020016107088152509050816001819055506002829080600181540180825580915050600190039060005260206000200160009091909190915055600280549050600381905550806004600083600001518152602001908152602001600020600082015181600001556020820151816001015560408201518160020160006101000a81548160ff02191690836002811115610d99577f4e487b7100000000000000000000000000000000000000000000000000000000600052602160045260246000fd5b021790555060608201518160020160016101000a81548173ffffffffffffffffffffffffffffffffffffffff021916908373ffffffffffffffffffffffffffffffffffffffff1602179055506080820151816003019080519060200190610e01929190611685565b5060a0820151816004019080519060200190610e1e929190611685565b5060c0820151816005019080519060200190610e3b929190611685565b5060e0820151816006019080519060200190610e58929190611685565b5061010082015181600701600082015181600001556020820151816001015560408201518160020160006101000a81548173ffffffffffffffffffffffffffffffffffffffff021916908373ffffffffffffffffffffffffffffffffffffffff16021790555060608201518160020160146101000a81548160ff02191690836004811115610f0f577f4e487b7100000000000000000000000000000000000000000000000000000000600052602160045260246000fd5b0217905550505061012082015181600a01559050508681600001517fd6c64986ac82ae5db393ba396404534c8743eb73dd99a83e574c46137d38c4b060405160405180910390a350505050505050565b610f6761137f565b600073ffffffffffffffffffffffffffffffffffffffff168173ffffffffffffffffffffffffffffffffffffffff161415610fd7576040517f08c379a0000000000000000000000000000000000000000000000000000000008152600401610fce90611bf0565b60405180910390fd5b610fe0816113fd565b50565b60046020528060005260406000206000915090508060000154908060010154908060020160009054906101000a900460ff16908060020160019054906101000a900473ffffffffffffffffffffffffffffffffffffffff169080600301805461104b90611f9a565b80601f016020809104026020016040519081016040528092919081815260200182805461107790611f9a565b80156110c45780601f10611099576101008083540402835291602001916110c4565b820191906000526020600020905b8154815290600101906020018083116110a757829003601f168201915b5050505050908060040180546110d990611f9a565b80601f016020809104026020016040519081016040528092919081815260200182805461110590611f9a565b80156111525780601f1061112757610100808354040283529160200191611152565b820191906000526020600020905b81548152906001019060200180831161113557829003601f168201915b50505050509080600501805461116790611f9a565b80601f016020809104026020016040519081016040528092919081815260200182805461119390611f9a565b80156111e05780601f106111b5576101008083540402835291602001916111e0565b820191906000526020600020905b8154815290600101906020018083116111c357829003601f168201915b5050505050908060060180546111f590611f9a565b80601f016020809104026020016040519081016040528092919081815260200182805461122190611f9a565b801561126e5780601f106112435761010080835404028352916020019161126e565b820191906000526020600020905b81548152906001019060200180831161125157829003601f168201915b5050505050908060070160405180608001604052908160008201548152602001600182015481526020016002820160009054906101000a900473ffffffffffffffffffffffffffffffffffffffff1673ffffffffffffffffffffffffffffffffffffffff1673ffffffffffffffffffffffffffffffffffffffff1681526020016002820160149054906101000a900460ff166004811115611338577f4e487b7100000000000000000000000000000000000000000000000000000000600052602160045260246000fd5b6004811115611370577f4e487b7100000000000000000000000000000000000000000000000000000000600052602160045260246000fd5b815250509080600a015490508a565b61138761167d565b73ffffffffffffffffffffffffffffffffffffffff166113a5610719565b73ffffffffffffffffffffffffffffffffffffffff16146113fb576040517f08c379a00000000000000000000000000000000000000000000000000000000081526004016113f290611c10565b60405180910390fd5b565b60008060009054906101000a900473ffffffffffffffffffffffffffffffffffffffff169050816000806101000a81548173ffffffffffffffffffffffffffffffffffffffff021916908373ffffffffffffffffffffffffffffffffffffffff1602179055508173ffffffffffffffffffffffffffffffffffffffff168173ffffffffffffffffffffffffffffffffffffffff167f8be0079c531659141344cd1fd0a4f28419497f9722a3daafe3b4186f6b6457e060405160405180910390a35050565b42600460008381526020019081526020016000206007016000018190555060006004600083815260200190815260200160002060070160020160006101000a81548173ffffffffffffffffffffffffffffffffffffffff021916908373ffffffffffffffffffffffffffffffffffffffff1602179055506000600460008381526020019081526020016000206007016001018190555060006004600083815260200190815260200160002060070160020160146101000a81548160ff021916908360048111156115ba577f4e487b7100000000000000000000000000000000000000000000000000000000600052602160045260246000fd5b021790555060006004600083815260200190815260200160002060020160006101000a81548160ff0219169083600281111561161f577f4e487b7100000000000000000000000000000000000000000000000000000000600052602160045260246000fd5b021790555060006004600083815260200190815260200160002060020160016101000a81548173ffffffffffffffffffffffffffffffffffffffff021916908373ffffffffffffffffffffffffffffffffffffffff16021790555050565b600033905090565b82805461169190611f9a565b90600052602060002090601f0160209004810192826116b357600085556116fa565b82601f106116cc57805160ff19168380011785556116fa565b828001600101855582156116fa579182015b828111156116f95782518255916020019190600101906116de565b5b509050611707919061170b565b5090565b5b8082111561172457600081600090555060010161170c565b5090565b600061173b61173684611d54565b611d23565b90508281526020810184848401111561175357600080fd5b61175e848285611f58565b509392505050565b60008135905061177581612139565b92915050565b600082601f83011261178c57600080fd5b813561179c848260208601611728565b91505092915050565b6000813590506117b481612150565b92915050565b6000602082840312156117cc57600080fd5b60006117da84828501611766565b91505092915050565b6000602082840312156117f557600080fd5b6000611803848285016117a5565b91505092915050565b600080600080600060a0868803121561182457600080fd5b6000611832888289016117a5565b955050602086013567ffffffffffffffff81111561184f57600080fd5b61185b8882890161177b565b945050604086013567ffffffffffffffff81111561187857600080fd5b6118848882890161177b565b935050606086013567ffffffffffffffff8111156118a157600080fd5b6118ad8882890161177b565b925050608086013567ffffffffffffffff8111156118ca57600080fd5b6118d68882890161177b565b9150509295509295909350565b6118ec81611ed2565b82525050565b6118fb81611ec0565b82525050565b61190a81611ec0565b82525050565b61191981611f34565b82525050565b61192881611f46565b82525050565b600061193982611d84565b6119438185611d9a565b9350611953818560208601611f67565b61195c81612100565b840191505092915050565b6000611974601d83611d9a565b91507f506c65617365207061792065786163742072656e7420616d6f756e742e0000006000830152602082019050919050565b60006119b4602183611d9a565b91507f416464696e672074656e616e7420746f2070726f7065727479206661696c656460008301527f2e000000000000000000000000000000000000000000000000000000000000006020830152604082019050919050565b6000611a1a602683611d9a565b91507f4f776e61626c653a206e6577206f776e657220697320746865207a65726f206160008301527f64647265737300000000000000000000000000000000000000000000000000006020830152604082019050919050565b6000611a80602083611d9a565b91507f4f776e61626c653a2063616c6c6572206973206e6f7420746865206f776e65726000830152602082019050919050565b6000611ac0600083611d8f565b9150600082019050919050565b6000611ada601c83611d9a565b91507f546869732070726f7065727479206973206e6f7420766163616e742e000000006000830152602082019050919050565b608082016000820151611b236000850182611b62565b506020820151611b366020850182611b62565b506040820151611b4960408501826118f2565b506060820151611b5c6060850182611910565b50505050565b611b6b81611f2a565b82525050565b611b7a81611f2a565b82525050565b6000611b8b82611ab3565b9150819050919050565b6000602082019050611baa6000830184611901565b92915050565b60006020820190508181036000830152611bc981611967565b9050919050565b60006020820190508181036000830152611be9816119a7565b9050919050565b60006020820190508181036000830152611c0981611a0d565b9050919050565b60006020820190508181036000830152611c2981611a73565b9050919050565b60006020820190508181036000830152611c4981611acd565b9050919050565b6000602082019050611c656000830184611b71565b92915050565b60006101a082019050611c81600083018d611b71565b611c8e602083018c611b71565b611c9b604083018b61191f565b611ca8606083018a6118e3565b8181036080830152611cba818961192e565b905081810360a0830152611cce818861192e565b905081810360c0830152611ce2818761192e565b905081810360e0830152611cf6818661192e565b9050611d06610100830185611b0d565b611d14610180830184611b71565b9b9a5050505050505050505050565b6000604051905081810181811067ffffffffffffffff82111715611d4a57611d496120d1565b5b8060405250919050565b600067ffffffffffffffff821115611d6f57611d6e6120d1565b5b601f19601f8301169050602081019050919050565b600081519050919050565b600081905092915050565b600082825260208201905092915050565b6000611db682611f2a565b9150611dc183611f2a565b9250827fffffffffffffffffffffffffffffffffffffffffffffffffffffffffffffffff03821115611df657611df5612015565b5b828201905092915050565b6000611e0c82611f2a565b9150611e1783611f2a565b925082611e2757611e26612044565b5b828204905092915050565b6000611e3d82611f2a565b9150611e4883611f2a565b9250817fffffffffffffffffffffffffffffffffffffffffffffffffffffffffffffffff0483118215151615611e8157611e80612015565b5b828202905092915050565b6000611e9782611f2a565b9150611ea283611f2a565b925082821015611eb557611eb4612015565b5b828203905092915050565b6000611ecb82611f0a565b9050919050565b6000611edd82611f0a565b9050919050565b6000819050611ef282612111565b919050565b6000819050611f0582612125565b919050565b600073ffffffffffffffffffffffffffffffffffffffff82169050919050565b6000819050919050565b6000611f3f82611ee4565b9050919050565b6000611f5182611ef7565b9050919050565b82818337600083830152505050565b60005b83811015611f85578082015181840152602081019050611f6a565b83811115611f94576000848401525b50505050565b60006002820490506001821680611fb257607f821691505b60208210811415611fc657611fc56120a2565b5b50919050565b6000611fd782611f2a565b91507fffffffffffffffffffffffffffffffffffffffffffffffffffffffffffffffff82141561200a57612009612015565b5b600182019050919050565b7f4e487b7100000000000000000000000000000000000000000000000000000000600052601160045260246000fd5b7f4e487b7100000000000000000000000000000000000000000000000000000000600052601260045260246000fd5b7f4e487b7100000000000000000000000000000000000000000000000000000000600052602160045260246000fd5b7f4e487b7100000000000000000000000000000000000000000000000000000000600052602260045260246000fd5b7f4e487b7100000000000000000000000000000000000000000000000000000000600052604160045260246000fd5b6000601f19601f8301169050919050565b6005811061212257612121612073565b5b50565b6003811061213657612135612073565b5b50565b61214281611ec0565b811461214d57600080fd5b50565b61215981611f2a565b811461216457600080fd5b5056fea26469706673582212201300638420aec658f86e6f3d638f367daec2c068e931bfedbc6909dddbfe4ed564736f6c63430008000033",
  "immutableReferences": {},
  "source": "// SPDX-License-Identifier: MIT\npragma solidity 0.8.0;\n\nimport \"@openzeppelin/contracts/access/Ownable.sol\";\n\n/// @title Contract for automated leasing\n/// @author Miles Kwok\n/// @notice Allows a user to rent a listed apartment through the Dapps\n/// @dev Payment tracking will be implemented in the next version\n/// @dev Timestamps in seconds to match block.timestamp unit\n\ncontract Rentals is Ownable {\n    /// @notice Emitted when a tenant is added to a property\n    /// @param property Property id\n    /// @param tenant Tenant address\n    event LogTenantAdded(uint indexed property, address indexed tenant);\n\n    /// @notice Emitted when a new property is added\n    /// @param property Property id\n    /// @param rentAmount Rent amount\n    event LogPropertyAdded(uint indexed property, uint indexed rentAmount);\n\n    event LogUints(uint indexed i, uint indexed idListLength);\n\n    /// @dev Tracks given property ids. Current value is the newest property id.\n    uint private propertyIdCounter;\n\n    enum State {\n        Vacant,\n        Rented,\n        NotAvailable\n    }\n    enum PaymentState {\n        Ok,\n        Warning,\n        Alert,\n        HighAlert,\n        Terminated\n    }\n\n    struct Property {\n        uint propertyId;\n        uint currentRentAmount;\n        State status;\n        address payable tenant;\n        string location;\n        string description;\n        string infoUrl;\n        string imgUrl;\n        Payment latestTenantPayment;\n        uint paymentPeriodSec;\n    }\n\n    struct Payment {\n        uint timestamp;\n        uint amount;\n        address from;\n        PaymentState paymentStatus;\n    }\n\n    /// @notice List of all property ids.\n    /// @dev Used as a helper when iterating available properties.\n    uint[] public idList;\n\n    /// @notice idList length.\n    /// @dev Used as a helper when iterating available properties.\n    uint public idListLength;\n\n    mapping(uint => Property) public properties;\n\n    modifier isVacant(uint id) {\n        require(\n            properties[id].status == State.Vacant &&\n                properties[id].tenant == address(0),\n            \"This property is not vacant.\"\n        );\n        _;\n    }\n\n    modifier isExactPayment(uint id) {\n        require(\n            properties[id].currentRentAmount == msg.value,\n            \"Please pay exact rent amount.\"\n        );\n        _;\n    }\n\n    constructor() {}\n\n    /// @notice Adds a tenant to a given property id\n    /// @param _propertyId Property to which the sender address is added as a tenant\n    /// @dev Check for exact payment sum to avoid having to send ETH back to sender\n    function addAsTenant(uint _propertyId)\n        public\n        payable\n        isVacant(_propertyId)\n        isExactPayment(_propertyId)\n    {\n        Property storage _p = properties[_propertyId];\n        _p.tenant = payable(msg.sender);\n        _p.latestTenantPayment = Payment({\n            timestamp: block.timestamp,\n            amount: msg.value,\n            from: msg.sender,\n            paymentStatus: PaymentState.Ok\n        });\n        _p.status = State.Rented;\n        address landlord = owner();\n        (bool success, ) = landlord.call{value: msg.value}(\"\");\n        require(success, \"Adding tenant to property failed.\");\n        emit LogTenantAdded(_propertyId, msg.sender);\n    }\n\n    /// @notice Adds a property listing into contract state\n    /// @param rentAmount Listing monthly rent amount in gwei\n    /// @param _location Geographical listing location as a string, e.g. Grove Street 10, Los Santos\n    /// @param _description Short description of listing\n    /// @param _infoUrl Url to additional information about listing, stored off-chain.\n    /// @param _imgUrl Url to an image of listing to be displayed in the web app.\n    /// @dev HTTP GET to _infoUrl should return an array with information in the following format: { infoId: string, value: string, title: string }[].\n    function addProperty(\n        uint rentAmount,\n        string memory _location,\n        string memory _description,\n        string memory _infoUrl,\n        string memory _imgUrl\n    ) public onlyOwner {\n        uint newPropertyId = propertyIdCounter + 1;\n\n        Property memory newProperty = Property({\n            propertyId: newPropertyId,\n            currentRentAmount: rentAmount,\n            status: State.Vacant,\n            tenant: payable(address(0)),\n            location: _location,\n            description: _description,\n            infoUrl: _infoUrl,\n            imgUrl: _imgUrl,\n            latestTenantPayment: Payment({\n                timestamp: block.timestamp,\n                from: address(0),\n                amount: 0,\n                paymentStatus: PaymentState.Ok\n            }),\n            paymentPeriodSec: 30 * 60 // 30 minutes\n        });\n\n        propertyIdCounter = newPropertyId;\n        idList.push(newPropertyId);\n        idListLength = idList.length;\n        properties[newProperty.propertyId] = newProperty;\n        emit LogPropertyAdded(newProperty.propertyId, rentAmount);\n    }\n\n    /// @notice Checks each rented listing for payments\n    /// @dev Called by a Gelato scheduled task\n    function checkPayments() external {\n        for (uint i = 0; i < idList.length; i++) {\n            uint diff = block.timestamp -\n                properties[idList[i]].latestTenantPayment.timestamp;\n            uint limitSec = properties[idList[i]].paymentPeriodSec;\n            emit LogUints(i, idList.length);\n\n            if (properties[idList[i]].latestTenantPayment.from != address(0)) {\n                if (diff > limitSec) {\n                    removeTenant(idList[i]);\n                    continue;\n                }\n\n                // 90%\n                if (diff > (limitSec * 90) / 100) {\n                    properties[idList[i]]\n                        .latestTenantPayment\n                        .paymentStatus = PaymentState.HighAlert;\n                    continue;\n                }\n                // 70%\n                if (diff > (limitSec * 70) / 100) {\n                    properties[idList[i]]\n                        .latestTenantPayment\n                        .paymentStatus = PaymentState.Alert;\n                    continue;\n                }\n                // 40%\n                if (diff > (limitSec * 40) / 100) {\n                    properties[idList[i]]\n                        .latestTenantPayment\n                        .paymentStatus = PaymentState.Warning;\n                    continue;\n                }\n            }\n        }\n    }\n\n    /// @notice Remove tenant from a listing\n    /// @param _id Listing id\n    function removeTenant(uint _id) private {\n        properties[_id].latestTenantPayment.timestamp = block.timestamp;\n        properties[_id].latestTenantPayment.from = address(0);\n        properties[_id].latestTenantPayment.amount = 0;\n        properties[_id].latestTenantPayment.paymentStatus = PaymentState.Ok;\n        properties[_id].status = State.Vacant;\n        properties[_id].tenant = payable(address(0));\n    }\n\n    /// @notice Remove a listing\n    /// @param _id Listing id\n    /// @dev Only the contract owner can call this\n    function removeProperty(uint _id) private onlyOwner {\n        // TODO: remove a listing entirely\n        // delete properties[_id];\n        // TODO: remove _id from idList\n    }\n\n    /// @notice Withdraw contract funds\n    /// @dev Only the contract owner can call this\n    function withdraw() public onlyOwner {\n        // TODO: withdraw any funds from contract\n    }\n}\n",
  "sourcePath": "/Users/littlemiddle/Documents/GitHub/eth-leasing/contracts/Rentals.sol",
  "compiler": {
    "name": "solc",
    "version": "0.8.0+commit.c7dfd78e.Emscripten.clang"
  },
  "schemaVersion": "3.4.4",
  "updatedAt": "2022-09-20T14:53:27.948Z",
  "networkType": "ethereum",
  "devdoc": {
    "author": "Miles Kwok",
    "details": "Payment tracking will be implemented in the next versionTimestamps in seconds to match block.timestamp unit",
    "events": {
      "LogPropertyAdded(uint256,uint256)": {
        "params": {
          "property": "Property id",
          "rentAmount": "Rent amount"
        }
      },
      "LogTenantAdded(uint256,address)": {
        "params": {
          "property": "Property id",
          "tenant": "Tenant address"
        }
      }
    },
    "kind": "dev",
    "methods": {
      "addAsTenant(uint256)": {
        "details": "Check for exact payment sum to avoid having to send ETH back to sender",
        "params": {
          "_propertyId": "Property to which the sender address is added as a tenant"
        }
      },
      "addProperty(uint256,string,string,string,string)": {
        "details": "HTTP GET to _infoUrl should return an array with information in the following format: { infoId: string, value: string, title: string }[].",
        "params": {
          "_description": "Short description of listing",
          "_imgUrl": "Url to an image of listing to be displayed in the web app.",
          "_infoUrl": "Url to additional information about listing, stored off-chain.",
          "_location": "Geographical listing location as a string, e.g. Grove Street 10, Los Santos",
          "rentAmount": "Listing monthly rent amount in gwei"
        }
      },
      "checkPayments()": {
        "details": "Called by a Gelato scheduled task"
      },
      "owner()": {
        "details": "Returns the address of the current owner."
      },
      "renounceOwnership()": {
        "details": "Leaves the contract without owner. It will not be possible to call `onlyOwner` functions anymore. Can only be called by the current owner. NOTE: Renouncing ownership will leave the contract without an owner, thereby removing any functionality that is only available to the owner."
      },
      "transferOwnership(address)": {
        "details": "Transfers ownership of the contract to a new account (`newOwner`). Can only be called by the current owner."
      },
      "withdraw()": {
        "details": "Only the contract owner can call this"
      }
    },
    "stateVariables": {
      "idList": {
        "details": "Used as a helper when iterating available properties."
      },
      "idListLength": {
        "details": "Used as a helper when iterating available properties."
      },
      "propertyIdCounter": {
        "details": "Tracks given property ids. Current value is the newest property id."
      }
    },
    "title": "Contract for automated leasing",
    "version": 1
  },
  "userdoc": {
    "events": {
      "LogPropertyAdded(uint256,uint256)": {
        "notice": "Emitted when a new property is added"
      },
      "LogTenantAdded(uint256,address)": {
        "notice": "Emitted when a tenant is added to a property"
      }
    },
    "kind": "user",
    "methods": {
      "addAsTenant(uint256)": {
        "notice": "Adds a tenant to a given property id"
      },
      "addProperty(uint256,string,string,string,string)": {
        "notice": "Adds a property listing into contract state"
      },
      "checkPayments()": {
        "notice": "Checks each rented listing for payments"
      },
      "idList(uint256)": {
        "notice": "List of all property ids."
      },
      "idListLength()": {
        "notice": "idList length."
      },
      "withdraw()": {
        "notice": "Withdraw contract funds"
      }
    },
    "notice": "Allows a user to rent a listed apartment through the Dapps",
    "version": 1
  }
}